:100000000C9434000C943E000C943E000C943E0082
:100010000C943E000C943E000C943E000C943E0068
:100020000C943E000C943E000C943E000C943E0058
:100030000C943E000C943E000C943E000C943E0048
:100040000C943E000C943E000C943E000C943E0038
:100050000C943E000C943E000C943E000C943E0028
:100060000C943E000C943E0011241FBECFEFD8E04C
:10007000DEBFCDBF0E9440000C9457000C940000DE
:1000800080E284B950E220E931E04FED55B988EEC5
:1000900093E0F9013197F1F70197D9F745B988EE67
:1000A00093E0F9013197F1F70197D9F7EFCFF89481
:0200B000FFCF80
:00000001FF
