:100000000C9434000C9449000C9449000C94490061
:100010000C9449000C9449000C9449000C9449003C
:100020000C9449000C9449000C9449000C9449002C
:100030000C9449000C9449000C9449000C9449001C
:100040000C9449000C9449000C9449000C9449000C
:100050000C9449000C9449000C9449000C944900FC
:100060000C9449000C94490011241FBECFEFD8E036
:10007000DEBFCDBF12E0A0E0B1E0E4EAFCE102C0E7
:1000800005900D92A830B107D9F70E940B070C9488
:10009000500E0C9400002F923F924F925F926F92FD
:1000A0007F928F929F92AF92BF92CF92DF92EF9208
:1000B000FF920F931F93DF93CF9300D00F92CDB792
:1000C000DEB77B018C018CE38AB9C801B70120E05F
:1000D00030E040E050E00E941B0B88239CF4C801F4
:1000E000B70120E030E040E85FE30E94E80820E04C
:1000F00030E04DEE53E40E94150920E030E04AE77D
:1001000054E40CC0C801B70120E030E04DEE53E4E8
:100110000E94150920E030EA4EEB54E40E94E80802
:100120003B014C012BEA3AEA4AEA50E40E941509E5
:100130001B012C010E943F0769831B821A82589A77
:10014000C201B10120E030E040E85FE30E941B0BF8
:1001500087FD50C0C201B10120E030E04FE753E419
:100160000E94BB0A181614F0898145C0C401B3016E
:1001700020E030E04AE754E40E940F0A5B016C0182
:1001800020E030E04AE755E40E9415097B018C012C
:1001900020E030E040E85FE30E941B0B88231CF462
:1001A00061E070E023C0C801B70120E03FEF4FE7F6
:1001B00057E40E94BB0A1816ACF4C601B50120E052
:1001C00030E040E251E40E9415090E943F0706C05A
:1001D00080E991E00197F1F7615070406115710578
:1001E000B9F70BC0C801B7010E943F07CB010197C7
:1001F000F1F703C081E08A95F1F7589860E070E06C
:100200008AEF94E4A40193010E94B7085B016C019A
:100210002BEA3AEA4AEA50E40E9415097B018C0174
:1002200020E030E040E85FE30E941B0B882314F4D9
:1002300061E053C0C801B70120E030E04FE753E46C
:100240000E94BB0A18160CF044C0C601B50120E09C
:1002500030E04AE754E40E940F0A5B016C0120E0A1
:1002600030E04AE755E40E9415097B018C0120E04B
:1002700030E040E85FE30E941B0B88231CF461E040
:1002800070E023C0C801B70120E03FEF4FE757E41B
:100290000E94BB0A1816ACF4C601B50120E030E09C
:1002A00040E251E40E9415090E943F0706C080E920
:1002B00091E00197F1F76150704061157105B9F750
:1002C0000EC0C801B7010E943F07CB010197F1F7AB
:1002D00006C0C801B7010E943F076A95F1F78A81FD
:1002E0009B8101969B838A838051974209F027CF97
:1002F00080E090E00F900F900F90CF91DF911F91D1
:100300000F91FF90EF90DF90CF90BF90AF909F90B4
:100310008F907F906F905F904F903F902F900895B7
:100320002F923F924F925F926F927F928F929F9205
:10033000AF92BF92CF92DF92EF92FF920F931F93F3
:10034000DF93CF9300D000D0CDB7DEB729833A83B7
:100350004B835C838CE38AB960E070E080E89FE3C4
:1003600029813A814B815C810E94B70820E030E00E
:100370004DEE53E40E94150920E030E04AE754E4D2
:100380000E94E8081B012C0169817A818B819C8184
:1003900020E030E04DEE53E40E94150920E030EA01
:1003A0004EEB54E40E94E8083B014C015A9A5B9AD8
:1003B000C201B1012BEA3AEA4AEA50E40E94150967
:1003C0007B018C0120E030E040E85FE30E941B0BE2
:1003D000882314F461E054C0C801B70120E030E084
:1003E0004FE753E40E94BB0A18160CF045C0C20147
:1003F000B10120E030E04AE754E40E940F0A5B01BB
:100400006C0120E030E04AE755E40E9415097B01C9
:100410008C0120E030E040E85FE30E941B0B882362
:100420001CF461E070E024C0C801B70120E03FEF98
:100430004FE757E40E94BB0A1816B4F4C601B50191
:1004400020E030E040E251E40E9415090E943F079D
:1004500080E991E005C0FC013197F1F761507040EF
:1004600061157105C1F70EC0C801B7010E943F07B1
:10047000CB010197F1F706C0C801B7010E943F0701
:100480006A95F1F75A985B9860E070E08AEF94E41F
:10049000A20191010E94B7085B016C012BEA3AEAC4
:1004A0004AEA50E40E9415097B018C0120E030E00B
:1004B00040E85FE30E941B0B882314F461E054C002
:1004C000C801B70120E030E04FE753E40E94BB0AC7
:1004D00018160CF045C0C601B50120E030E04AE72F
:1004E00054E40E940F0A5B016C0120E030E04AE70F
:1004F00055E40E9415097B018C0120E030E040E8C2
:100500005FE30E941B0B88231CF461E070E024C0B1
:10051000C801B70120E03FEF4FE757E40E94BB0A54
:100520001816B4F4C601B50120E030E040E251E411
:100530000E9415090E943F0780E991E005C0FC0177
:100540003197F1F76150704061157105C1F70EC028
:10055000C801B7010E943F07CB010197F1F706C020
:10056000C801B7010E943F076A95F1F75C9A5D9A4E
:10057000C401B3012BEA3AEA4AEA50E40E941509A1
:100580007B018C0120E030E040E85FE30E941B0B20
:10059000882314F461E054C0C801B70120E030E0C2
:1005A0004FE753E40E94BB0A18160CF045C0C40183
:1005B000B30120E030E04AE754E40E940F0A5B01F7
:1005C0006C0120E030E04AE755E40E9415097B0108
:1005D0008C0120E030E040E85FE30E941B0B8823A1
:1005E0001CF461E070E024C0C801B70120E03FEFD7
:1005F0004FE757E40E94BB0A1816B4F4C601B501D0
:1006000020E030E040E251E40E9415090E943F07DB
:1006100080E991E005C0FC013197F1F7615070402D
:1006200061157105C1F70EC0C801B7010E943F07EF
:10063000CB010197F1F706C0C801B7010E943F073F
:100640006A95F1F75C985D9860E070E08AEF94E459
:10065000A40193010E94B7085B016C012BEA3AEAFE
:100660004AEA50E40E9415097B018C0120E030E049
:1006700040E85FE30E941B0B882314F461E054C040
:10068000C801B70120E030E04FE753E40E94BB0A05
:1006900018160CF045C0C601B50120E030E04AE76D
:1006A00054E40E940F0A5B016C0120E030E04AE74D
:1006B00055E40E9415097B018C0120E030E040E800
:1006C0005FE30E941B0B88231CF461E070E024C0F0
:1006D000C801B70120E03FEF4FE757E40E94BB0A93
:1006E0001816B4F4C601B50120E030E040E251E450
:1006F0000E9415090E943F0780E991E005C0FC01B6
:100700003197F1F76150704061157105C1F70EC066
:10071000C801B7010E943F07CB010197F1F706C05E
:10072000C801B7010E943F076A95F1F7C401B30100
:10073000A20191010E94E8085B016C012BEA3AEAF0
:100740004AEA50E40E9415097B018C0120E030E068
:1007500040E85FE30E941B0B882314F461E054C05F
:10076000C801B70120E030E04FE753E40E94BB0A24
:1007700018160CF045C0C601B50120E030E04AE78C
:1007800054E40E940F0A5B016C0120E030E04AE76C
:1007900055E40E9415097B018C0120E030E040E81F
:1007A0005FE30E941B0B88231CF461E070E024C00F
:1007B000C801B70120E03FEF4FE757E40E94BB0AB2
:1007C0001816B4F4C601B50120E030E040E251E46F
:1007D0000E9415090E943F0780E991E005C0FC01D5
:1007E0003197F1F76150704061157105C1F70EC086
:1007F000C801B7010E943F07CB010197F1F706C07E
:10080000C801B7010E943F076A95F1F769817A81B3
:100810008B819C810E944B0080E090E00F900F90B4
:100820000F900F90CF91DF911F910F91FF90EF905C
:10083000DF90CF90BF90AF909F908F907F906F9000
:100840005F904F903F902F9008952F923F924F923C
:100850005F926F927F928F929F92AF92BF92CF9250
:10086000DF92EF92FF920F931F93DF93CF93CDB759
:10087000DEB72B970FB6F894DEBF0FBECDBF7B015E
:100880008C0139014A0123EC35EF48E450E40E9421
:10089000BB0A18160CF42AC2C801B70120E030E0E8
:1008A00040E050E00E941B0B87FD20C2C401B30151
:1008B00020E030E040E85FE30E94BB0A18161CF419
:1008C00022E030E015C2C401B30120E030E040E096
:1008D00050E00E941B0B88231CF423E030E008C288
:1008E0008CE38AB960E070E080E89FE3A4019301A3
:1008F0000E94B70820E030E04DEE53E40E94150955
:1009000020E030E04AE754E40E94E8086E837F83E9
:1009100088879987C401B30120E030E04DEE53E4AD
:100920000E94150920E030EA4EEB54E40E94E808EA
:100930006A837B838C839D832BEA3AEA4AEA50E4FC
:100940000E9415091B012C010E943F0769831B8629
:100950001A865A9A5B9AC201B10120E030E040E861
:100960005FE30E941B0B87FD52C0C201B10120E072
:1009700030E04FE753E40E94BB0A181614F0898157
:1009800047C06A817B818C819D8120E030E04AE70D
:1009900054E40E940F0A5B016C0120E030E04AE75A
:1009A00055E40E9415097B018C0120E030E040E80D
:1009B0005FE30E941B0B88231CF461E070E023C0FE
:1009C000C801B70120E03FEF4FE757E40E94BB0AA0
:1009D0001816ACF4C601B50120E030E040E251E465
:1009E0000E9415090E943F0706C080E991E0019727
:1009F000F1F76150704061157105B9F70BC0C8017E
:100A0000B7010E943F07CB010197F1F703C081E0D6
:100A10008A95F1F75A985B9860E070E08AEF94E469
:100A20002A813B814C815D810E94B7085B016C018A
:100A30002BEA3AEA4AEA50E40E9415097B018C014C
:100A400020E030E040E85FE30E941B0B882314F4B1
:100A500061E053C0C801B70120E030E04FE753E444
:100A60000E94BB0A18160CF044C0C601B50120E074
:100A700030E04AE754E40E940F0A5B016C0120E079
:100A800030E04AE755E40E9415097B018C0120E023
:100A900030E040E85FE30E941B0B88231CF461E018
:100AA00070E023C0C801B70120E03FEF4FE757E4F3
:100AB0000E94BB0A1816ACF4C601B50120E030E074
:100AC00040E251E40E9415090E943F0706C080E9F8
:100AD00091E00197F1F76150704061157105B9F728
:100AE0000EC0C801B7010E943F07CB010197F1F783
:100AF00006C0C801B7010E943F076A95F1F75C9AEA
:100B00005D9A6E817F81888599852BEA3AEA4AEA67
:100B100050E40E9415097B018C0120E030E040E8A0
:100B20005FE30E941B0B882314F461E055C0C801E9
:100B3000B70120E030E04FE753E40E94BB0A1816EB
:100B40000CF046C06E817F818885998520E030E079
:100B50004AE754E40E940F0A5B016C0120E030E098
:100B60004AE755E40E9415097B018C0120E030E042
:100B700040E85FE30E941B0B88231CF461E070E0F7
:100B800023C0C801B70120E03FEF4FE757E40E94C0
:100B9000BB0A1816ACF4C601B50120E030E040E213
:100BA00051E40E9415090E943F0706C080E991E0C8
:100BB0000197F1F76150704061157105B9F70EC0EA
:100BC000C801B7010E943F07CB010197F1F706C0AA
:100BD000C801B7010E943F076A95F1F75C985D98DC
:100BE00060E070E08AEF94E42E813F81488559856A
:100BF0000E94B7085B016C012BEA3AEA4AEA50E42A
:100C00000E9415097B018C0120E030E040E85FE3A1
:100C10000E941B0B882314F461E053C0C801B70184
:100C200020E030E04FE753E40E94BB0A18160CF0B6
:100C300044C0C601B50120E030E04AE754E40E9418
:100C40000F0A5B016C0120E030E04AE755E40E94A6
:100C500015097B018C0120E030E040E85FE30E9451
:100C60001B0B88231CF461E070E023C0C801B701AE
:100C700020E03FEF4FE757E40E94BB0A1816ACF4A0
:100C8000C601B50120E030E040E251E40E941509C0
:100C90000E943F0706C080E991E00197F1F761509B
:100CA000704061157105B9F70EC0C801B7010E9407
:100CB0003F07CB010197F1F706C0C801B7010E94B9
:100CC0003F076A95F1F78A859B8501969B878A87FE
:100CD0008051974209F03DCEC401B3010E944B0000
:100CE000009711F081E090E09C0102C021E030E02B
:100CF000C9012B960FB6F894DEBF0FBECDBFCF91C2
:100D0000DF911F910F91FF90EF90DF90CF90BF90F8
:100D1000AF909F908F907F906F905F904F903F909B
:100D20002F900895EF92FF920F931F93CF93DF932D
:100D3000579A289A80EC80937C0087E880937A0009
:100D400080917A00806480937A0080917A0084FF99
:100D5000FCCF2091780040917900942F80E030E022
:100D6000822B932B6FEF73E00E94F20D882777FDA3
:100D70008095982F0E944B0B20EAE22E2FE0F22E56
:100D800000EE1EE21BC05F9AC7010197F1F75F9862
:100D9000C8010197F1F78091780020917900D22F56
:100DA000C0E090E08C2B9D2B6FEF73E00E94F20D62
:100DB000882777FD8095982F0E944B0B20E030E02C
:100DC00040E05FE30E941B0B87FDDDCF80E090E0F9
:100DD000DF91CF911F910F91FF90EF90089580E0E8
:100DE00090E008950E94920620E030E060E47FE108
:100DF00040ED57E05E9ACB010197F1F75E98CA018A
:100E00000197F1F72F5F3F4F87E22031380791F7C5
:100E100080E090E00895CF93DF93C0E9D1E060E0F7
:100E200070E080E09FE30E944B0080E197E2FE01CA
:100E30003197F1F70197D9F760E070E080E09FE328
:100E400023EC35EF48EC5FE30E94900180E197E2EC
:100E5000FE013197F1F70197D9F760E070E080E08B
:100E60009FE323EC35EF48EC5FE30E9425048FEF0E
:100E70009FEFFE013197F1F70197D9F7D0CFEF92AD
:100E8000FF920F931F937B018C0120E030E040E044
:100E90005FE40E94EB0A88238CF0C801B70120E0D0
:100EA00030E040E05FE40E94B7080E94A90B9B017C
:100EB000AC01205030404040504806C0C801B70146
:100EC0000E94A90B9B01AC01B901CA011F910F91AE
:100ED000FF90EF900895A0E0B0E0E1E7F7E00C9418
:100EE000190EDC012B01FA019C91923008F439C1F2
:100EF000EB018881823008F433C1943069F4843086
:100F000009F02FC111969C9111978981981709F4C6
:100F100028C1A0E0B1E025C1843009F421C18230AC
:100F2000A9F4923009F01DC19A01AD0188E0EA01EF
:100F30000990AE01E90109929E018150C1F7E201D9
:100F4000898111969C918923818308C1923009F48B
:100F500007C112962D903C901397EB018A819B81DB
:100F60001496AD90BD90CD90DC901797EC80FD80ED
:100F70000E811F819101281B390BB90137FF04C075
:100F800066277727621B730B603271050CF061C016
:100F9000121613066CF537014801062E04C096940C
:100FA0008794779467940A94D2F721E030E040E088
:100FB00050E004C0220F331F441F551F6A95D2F71B
:100FC00021503040404050402E213F2140235123AA
:100FD000211531054105510521F021E030E040E0C7
:100FE00050E079018A01E628F728082919293CC030
:100FF000232BD1F1260E371E35014601062E04C0E3
:1010000096948794779467940A94D2F721E030E01D
:1010100040E050E004C0220F331F441F551F6A9563
:10102000D2F721503040404050402A213B214C21F2
:101030005D21211531054105510521F021E030E008
:1010400040E050E059016A01A628B728C828D928ED
:101050000BC0821593052CF01C01AA24BB2465014A
:1010600003C0EE24FF24870111969C91D2011196B2
:101070008C91981709F445C0992339F0A80197017C
:101080002A193B094C095D0906C0A60195012E19D4
:101090003F09400B510B57FD08C011823382228259
:1010A00024833583468357831DC081E08183338247
:1010B000228288279927DC01821B930BA40BB50B96
:1010C00084839583A683B7830DC0220F331F441FEB
:1010D000551F2483358346835783828193810197EB
:1010E000938382832481358146815781DA01C90146
:1010F0000197A109B1098F5F9F4FAF4FBF4328F3FD
:101100000BC0918333822282EA0CFB1C0C1D1D1D37
:10111000E482F5820683178383E08083248135810E
:101120004681578157FF1AC0C901AA2797FDA0958C
:10113000BA2F81709070A070B07056954795379512
:101140002795822B932BA42BB52B84839583A68381
:10115000B78382819381019693838283DF0101C0EB
:10116000D201CD01CDB7DEB7E2E10C94350EA0E29D
:10117000B0E0EDEBF8E00C94250E69837A838B8365
:101180009C832D833E834F835887E9E0EE2EF12C1C
:10119000EC0EFD1ECE010196B7010E94210D8E01BD
:1011A0000F5E1F4FCE010596B8010E94210D8A895E
:1011B00091E089278A8BC701B801AE01475E5F4F76
:1011C0000E946B070E944C0CA096E6E00C94410E26
:1011D000A0E2B0E0EEEEF8E00C94250E69837A838D
:1011E0008B839C832D833E834F835887F9E0EF2EBA
:1011F000F12CEC0EFD1ECE010196B7010E94210DCF
:101200008E010F5E1F4FCE010596B8010E94210D81
:10121000C701B801AE01475E5F4F0E946B070E9495
:101220004C0CA096E6E00C94410EA0E2B0E0EBE19D
:10123000F9E00C94190E69837A838B839C832D8348
:101240003E834F835887CE010196BE01675F7F4F73
:101250000E94210DCE010596BE016F5E7F4F0E9458
:10126000210D9985923088F089898230C8F09430B8
:1012700019F4823051F404C0843029F4923081F49E
:1012800080E091E0C6C0923049F420E09A858A89D6
:10129000981321E02A87CE010996BBC0823049F419
:1012A00020E09A858A89981321E02A8BCE01419605
:1012B000B0C02D843E844F8458886D887E888F8886
:1012C000988CEE24FF248701AA24BB24650140E00A
:1012D00050E060E070E0E0E0F0E0C101817090700B
:1012E000892BE9F0E60CF71C081D191D9A01AB01CA
:1012F0002A0D3B1D4C1D5D1D80E090E0A0E0B0E09C
:10130000E614F7040805190520F481E090E0A0E058
:10131000B0E0BA01A901480F591F6A1F7B1FAA0C30
:10132000BB1CCC1CDD1C97FE08C081E090E0A0E057
:10133000B0E0A82AB92ACA2ADB2A3196E032F105A0
:1013400049F0660C771C881C991C56944794379476
:101350002794C3CFFA85EA892B893C898B859C85A4
:10136000280F391F2E5F3F4F17C0CA018170907040
:10137000892B61F016950795F794E79480E090E04B
:10138000A0E0B0E8E82AF92A0A2B1B2B769567958E
:10139000579547952F5F3F4F77FDE7CF0CC0440F20
:1013A000551F661F771F17FD4160EE0CFF1C001FC5
:1013B000111F21503040403090E0590790E06907FC
:1013C00090E4790760F32B8F3C8FDB01CA018F77A4
:1013D0009070A070B07080349105A105B10561F4E2
:1013E00047FD0AC0E114F1040105110529F0405C34
:1013F0005F4F6F4F7F4F40781A8EFE1711F081E0DC
:101400008A8F4D8F5E8F6F8F78A383E0898FCE0197
:1014100049960E944C0CA096E2E10C94350EA8E18E
:10142000B0E0E5E1FAE00C94210E69837A838B83C6
:101430009C832D833E834F835887B9E0EB2EF12C9C
:10144000EC0EFD1ECE010196B7010E94210D8E010A
:101450000F5E1F4FCE010596B8010E94210D298510
:10146000223008F47EC03989323010F4B8017CC0D3
:101470008A859A8989278A87243011F0223031F4AD
:10148000231709F06EC060E071E06EC0343039F4AB
:101490001D861E861F86188A1C861B8604C0323055
:1014A00021F484E08987B7015FC02B853C858B8957
:1014B0009C89281B390B3C872B87ED84FE840F8584
:1014C0001889AD88BE88CF88D88CEA14FB040C0537
:1014D0001D0540F4EE0CFF1C001F111F2150304071
:1014E0003C872B8720E030E040E050E080E090E057
:1014F000A0E0B0E460E070E0EA14FB040C051D0518
:1015000040F0282B392B4A2B5B2BEA18FB080C09DF
:101510001D09B695A79597958795EE0CFF1C001FA2
:10152000111F6F5F7F4F6F31710531F7DA01C9010C
:101530008F779070A070B07080349105A105B105CF
:1015400061F427FD0AC0E114F1040105110529F039
:10155000205C3F4F4F4F5F4F20782D873E874F874E
:10156000588BBE01675F7F4FCB010E944C0C689681
:10157000EAE00C943D0EA8E1B0E0E1ECFAE00C9456
:10158000250E69837A838B839C832D833E834F83CF
:10159000588789E0E82EF12CEC0EFD1ECE01019655
:1015A000B7010E94210D8E010F5E1F4FCE010596DF
:1015B000B8010E94210D8985823040F089898230EE
:1015C00028F0C701B8010E94990D01C08FEF6896FD
:1015D000E6E00C94410EA8E1B0E0E1EFFAE00C94F3
:1015E000250E69837A838B839C832D833E834F836F
:1015F000588789E0E82EF12CEC0EFD1ECE010196F5
:10160000B7010E94210D8E010F5E1F4FCE0105967E
:10161000B8010E94210D8985823040F0898982308D
:1016200028F0C701B8010E94990D01C08FEF68969C
:10163000E6E00C94410EA8E1B0E0E1E2FBE00C949E
:10164000250E69837A838B839C832D833E834F830E
:10165000588789E0E82EF12CEC0EFD1ECE01019694
:10166000B7010E94210D8E010F5E1F4FCE0105961E
:10167000B8010E94210D8985823040F0898982302D
:1016800028F0C701B8010E94990D01C081E0689659
:10169000E6E00C94410EA8E0B0E0E1E5FBE00C943C
:1016A000220E9B01AC0183E08983DA01C9018827FE
:1016B000B7FD83959927AA27BB27B82E2115310599
:1016C0004105510519F482E089833AC08823A9F0C5
:1016D000203080E0380780E0480780E8580729F488
:1016E00060E070E080E09FEC30C0EE24FF248701D2
:1016F000E21AF30A040B150B02C079018A018EE18C
:10170000C82ED12CDC82CB82ED82FE820F8318871B
:10171000C801B7010E94FD0B01971816190684F441
:10172000082E04C0EE0CFF1C001F111F0A94D2F7F4
:10173000ED82FE820F831887C81AD90ADC82CB8219
:10174000BA82CE0101960E944C0C2896E9E00C94D6
:101750003E0EACE0B0E0EFEAFBE00C94290E6983AA
:101760007A838B839C83CE010196BE016B5F7F4F92
:101770000E94210D8D81823061F1823050F18430E0
:1017800021F48E81882351F12EC02F81388537FDB9
:1017900020C06E812F3131051CF06623F9F023C083
:1017A0008EE190E0821B930B29853A854B855C8501
:1017B00004C056954795379527958A95D2F76623A5
:1017C000B1F050954095309521953F4F4F4F5F4F69
:1017D0000EC020E030E040E050E009C02FEF3FEFC6
:1017E0004FEF5FE704C020E030E040E050E8B9018F
:1017F000CA012C96E2E00C94450EEF92FF920F93F3
:101800001F937B018C0180E0E81680E0F80681E000
:10181000080780E0180788F48FEFE816F104010547
:10182000110531F028F088E090E0A0E0B0E017C0AA
:1018300080E090E0A0E0B0E012C080E0E81680E038
:10184000F80680E0080781E0180728F088E190E0BA
:10185000A0E0B0E004C080E190E0A0E0B0E020E2D1
:1018600030E040E050E0281B390B4A0B5B0B04C012
:1018700016950795F794E7948A95D2F7F701E85FF4
:10188000FE4F8081281B310941095109C9011F916F
:101890000F91FF90EF900895DF92EF92FF920F93D8
:1018A0001F93FC01E480F58006811781D18080813F
:1018B000823048F480E090E0A0E1B0E0E82AF92A24
:1018C0000A2B1B2BA5C0843009F49FC0823021F461
:1018D000EE24FF24870105C0E114F1040105110580
:1018E00019F4E0E0F0E096C0628173819FEF623806
:1018F00079070CF05BC022E83FEF261B370B2A313B
:1019000031052CF020E030E040E050E02AC0B80182
:10191000A701022E04C076956795579547950A94BE
:10192000D2F781E090E0A0E0B0E004C0880F991FFA
:10193000AA1FBB1F2A95D2F70197A109B1098E21D1
:101940009F21A023B1230097A105B10521F081E0DB
:1019500090E0A0E0B0E09A01AB01282B392B4A2B94
:101960005B2BDA01C9018F779070A070B070803462
:101970009105A105B10539F427FF09C0205C3F4F4F
:101980004F4F5F4F04C0215C3F4F4F4F5F4FE0E030
:10199000F0E02030A0E03A07A0E04A07A0E45A07B0
:1019A00010F0E1E0F0E079018A0127C060387105AC
:1019B00064F5FB01E158FF4FD801C7018F779070A4
:1019C000A070B07080349105A105B10539F4E7FE2F
:1019D0000DC080E490E0A0E0B0E004C08FE390E0B0
:1019E000A0E0B0E0E80EF91E0A1F1B1F17FF05C09C
:1019F00016950795F794E794319687E01695079525
:101A0000F794E7948A95D1F705C0EE24FF24870167
:101A1000EFEFF0E06E2F679566276795902F9F7721
:101A2000D794DD24D7948E2F8695492F462B582F97
:101A30005D29B701CA011F910F91FF90EF90DF90D0
:101A40000895FC01DB01408151812281622F6F7773
:101A500070E0221F2227221F9381892F880F822B5B
:101A6000282F30E0991F9927991F11969C93119761
:101A700021153105A9F5411551056105710511F4CF
:101A800082E037C082E89FEF13969C938E93129763
:101A90009A01AB0167E0220F331F441F551F6A955F
:101AA000D1F783E08C930DC0220F331F441F551FC5
:101AB00012968D919C911397019713969C938E93F8
:101AC0001297203080E0380780E0480780E458070C
:101AD00058F314962D933D934D935C931797089567
:101AE0002F3F310579F4411551056105710519F450
:101AF00084E08C93089564FF03C081E08C9312C04E
:101B00001C9210C02F57304013963C932E9312977F
:101B100083E08C9387E0440F551F661F771F8A95DB
:101B2000D1F7706414964D935D936D937C931797E2
:101B300008951F93DC01FB019C91923008F447C08B
:101B40008081823008F443C0943051F411961C9186
:101B5000843099F58181682F70E0611B71093FC065
:101B6000843021F0923031F48230B9F181818823C0
:101B700089F12DC011961C9111978230F1F081816D
:101B80001817D9F412962D913C9113978281938165
:101B90008217930794F028173907BCF014968D919B
:101BA0009D910D90BC91A02D248135814681578156
:101BB000281739074A075B0718F4112341F00AC0B8
:101BC00082179307A407B50740F4112319F061E0C9
:101BD00070E005C06FEF7FEF02C060E070E0CB0106
:101BE0001F91089597FB092E07260AD077FD04D090
:101BF0000CD006D000201AF4709561957F4F08959F
:101C0000F6F7909581959F4F0895AA1BBB1B51E154
:101C100007C0AA1FBB1FA617B70710F0A61BB70B5C
:101C2000881F991F5A95A9F780959095BC01CD0101
:101C300008952F923F924F925F926F927F928F9270
:101C40009F92AF92BF92CF92DF92EF92FF920F934B
:101C50001F93CF93DF93CDB7DEB7CA1BDB0B0FB655
:101C6000F894DEBF0FBECDBF09942A883988488812
:101C70005F846E847D848C849B84AA84B984C884A8
:101C8000DF80EE80FD800C811B81AA81B981CE0F9F
:101C9000D11D0FB6F894DEBF0FBECDBFED01089584
:041CA000F894FFCFE6
:101CA400000000000000000000010202030303031F
:101CB40004040404040404040505050505050505D8
:101CC40005050505050505050606060606060606B8
:101CD40006060606060606060606060606060606A0
:101CE4000606060606060606070707070707070788
:101CF4000707070707070707070707070707070770
:101D0400070707070707070707070707070707075F
:101D1400070707070707070707070707070707074F
:101D24000707070707070707080808080808080837
:101D3400080808080808080808080808080808081F
:101D4400080808080808080808080808080808080F
:101D540008080808080808080808080808080808FF
:101D640008080808080808080808080808080808EF
:101D740008080808080808080808080808080808DF
:101D840008080808080808080808080808080808CF
:101D940008080808080808080808080808080808BF
:081DA4000808080808080808F7
:00000001FF
