:100000000C9434000C9451000C9451000C94510049
:100010000C9451000C9451000C9451000C9451001C
:100020000C9451000C9451000C9451000C9451000C
:100030000C9451000C9451000C9451000C945100FC
:100040000C9451000C9451000C9451000C945100EC
:100050000C9451000C9451000C9451000C945100DC
:100060000C9451000C94510011241FBECFEFD8E026
:10007000DEBFCDBF14E0A0E0B1E0E2EAFCE102C0E7
:1000800005900D92AE37B107D9F714E0AEE7B4E0B2
:1000900001C01D92A338B107E1F70E94B8010C948A
:1000A0004F0E0C940000AF92BF92CF92DF92EF926E
:1000B000FF920F931F93DF93CF93CDB7DEB72A97AD
:1000C0000FB6F894DEBF0FBECDBFAAB0B4B0C5B0B6
:1000D0008FEF8AB98EEF84B985B9DE011196E0E918
:1000E000F1E08AE001900D928150E1F717B880ECC1
:1000F00080937C0087E880937A0080917A00806406
:1001000080937A0060E070E080E090E00E94EE0A68
:100110008B019C01362FD12EC80164E670E00E944D
:10012000CF0DCB016AE070E00E94CF0D7E010894F4
:10013000E11CF11CF701E80FF11D2081C8016AE004
:1001400070E00E94CF0DCB016AE070E00E94CF0DFD
:10015000F701E80FF11DE081C8016AE070E00E943C
:10016000CF0DE80EF11CD701EC9040E050E0BDEF60
:1001700060E27EE4ABEFF7EF2BB9B5B9CB010197A5
:10018000F1F7EBB95F9AA5B9CB010197F1F7EBB89D
:10019000F5B9CB010197F1F74F5F5F4F4A30510539
:1001A00059F7AAB8B4B8C5B8832F9D2D2A960FB6B3
:1001B000F894DEBF0FBECDBFCF91DF911F910F919D
:1001C000FF90EF90DF90CF90BF90AF90089583EABB
:1001D00084BD85E085BD16BC08959C0180E28AB986
:1001E0005D9880E18AB95C9821153105C9F45D9864
:1001F0008AE18A95F1F75D9A85E38A95F1F75D9832
:1002000016BC4C9BFECF81E00E94060580E091E089
:100210000E946A0486B5482F50E04C99FECF14C066
:1002200021303105B9F52B988AE18A95F1F72B9A9F
:1002300085E38A95F1F72B9816BC1C9BFECF86B5FB
:10024000482F50E01C99FECF86B5282F30E042178A
:10025000530704F5241B350BB901882777FD8095DA
:10026000982F0E94900A24E43BE84CE85FE30E9448
:1002700036090E94EE0A882777FD8095982F0E9404
:10028000900A24E43BE84CE85FE30E943609E62F3D
:10029000692F04C0E0E070E080E060E02E2F372F8F
:1002A000482F562FB901CA0108950E946A0488EEAA
:1002B00093E020E931E0F9013197F1F70197D9F79F
:1002C000089520E030E060ED77E040E556E4439AA1
:1002D000CB010197F1F74398CA010197F1F72F5F1E
:1002E0003F4F2A30310599F7439884E091E00E940E
:1002F0005501089520E030E060EE7EE240E45FE1E9
:10030000439ACB010197F1F74398CA010197F1F79E
:100310002F5F3F4F2A30310599F7439880E191E0F4
:100320000E94550180ED97E020E931E0F901319715
:10033000F1F70197D9F70E94610108958EE191E0EC
:100340000E946A0440917E0450917F04662757FD05
:100350006095762F8AE022E00E94870388EE93E082
:1003600020E931E0F9013197F1F70197D9F70895C4
:10037000AF92BF92CF92DF92EF92FF920F931F93B3
:10038000CF93DF938FEF84B98AB983EA84BD85E088
:1003900085BD16BC0E94100790E4A92E9CE9B92ED9
:1003A00080E9C82E81E0D82E80E00E94060581E316
:1003B00091E00E946A04C5010197F1F780E090E0A6
:1003C0000E94ED007B018C0181E00E940605C801BE
:1003D000B7010E946007AB01BC018AE023E00E94E4
:1003E0008703C801B70120E030E040E251E40E94F9
:1003F000600A88230CF03AC080E00E94060586E37C
:1004000091E00E9455010E945300EC0181E00E949E
:100410000605AE01662757FD6095762F8AE022E03B
:100420000E94870380ED97E0F6013197F1F701977D
:10043000D9F7C436D1057CF080E00E9406058FE430
:1004400091E00E94550180E197E2F6013197F1F7C2
:100450000197D9F707C080E00E94060581E891E086
:100460000E9455010E947A010E94610181E090E0A2
:100470000E94ED0020E030E040E251E40E94600A7A
:10048000882324F40E947A010E9461010E949E0147
:100490008BCFE9EBF0E080818C7F808388E48093D0
:1004A000B8000895809380048091BC00846A809392
:1004B000BC008091BC0087FFFCCF8091B90090E028
:1004C000887F90708830910521F0409711F08EEF71
:1004D00008958FEF089590918004880F892B809361
:1004E000BB008091BC008F7D8093BC008091BC00DC
:1004F00080688093BC008091BC0087FFFCCF99236B
:1005000031F48091B900887F883151F40BC091306B
:1005100011F080E008958091B900887F803411F057
:100520008EEF08958FEF08958093BB008091BC00FB
:1005300080688093BC008091BC0087FFFCCF8091D5
:10054000B900887F883211F08EEF08958FEF0895FB
:1005500092E306C08091BC0087FF02C08DEF089532
:100560009150C0F78CEF0895882321F48091BC004E
:10057000806403C08091BC008F7B8093BC0080911D
:10058000BC0080688093BC0092E304C08091BC00F2
:1005900087FD03C09150D0F70EC08091B90090E064
:1005A000887F90708035910519F08835910519F490
:1005B0008091BB0008958EEF08958091BC00806902
:1005C0008093BC008091BC0084FFFCCF08950E9402
:1005D000940208950E94DD0208951F93182F80E071
:1005E0000E945202812F0E946B021F9108951F9357
:1005F000182F8CE30E94ED0280E00E949402812F6C
:100600000E9494020E94DD021F9108951F93182FEB
:1006100081E80E94F702812F0E94F7021F9108953E
:1006200086EA0E94F702089587EA0E94F702089579
:100630000F931F93082F162F8830F0F467FD1CC00E
:10064000809381046093820481E20E94F702812FEB
:100650000E94F7028FE70E94F70282E20E94F702EF
:10066000802F0E94F70287E00E94F7028CE30E942D
:10067000ED0280E40E9494021F910F9108958091F1
:1006800081048F5F87708093810460E00E9418036B
:1006900008950F931F93CF93DF93182F80918204B7
:1006A00090E08B37910514F41A3021F40E943F0337
:1006B0001A3041F1812F805225E0829F8001112460
:1006C00006561E4F90E00196EC01CC0FDD1FCC0FBB
:1006D000DD1FC80FD91FC656DE4FF80181918F016B
:1006E0000E949402809182048F5F809382040C1791
:1006F0001D0799F780E00E949402809182048F5F29
:1007000080938204DF91CF911F910F9108954F92B2
:100710005F926F927F928F929F92AF92BF92CF9291
:10072000DF92EF92FF920F931F93DF93CF93CDB79A
:10073000DEB72C970FB6F894DEBF0FBECDBF5A01BF
:100740006B01E22E823021F51EC020E08E2D90E05C
:100750000197A80102C0440F551F8A95E2F7CA010C
:10076000AA2797FDA095BA2F8A219B21AC21BD21F4
:100770000097A105B10509F021E0822F805D0E945C
:100780004903EA9402C001E010E0EE20F1F653C004
:10079000411551056105710551F010E02E010894D5
:1007A000411C511C682E77248824992433C000E012
:1007B00004C080E30E9449030F5F0E15E0F50A3084
:1007C000C1F739C0A114B104C104D104D9F0FA2C85
:1007D000C601B501A40193010E94E20DC901DA012D
:1007E0005C016D01C201810F911D9C878B87C60141
:1007F000B501A40193010E94B00DF61AEB85FC85AA
:10080000F08207C0FAE0FE15A0F0F201E10FF11D41
:1008100010821F5F1E15B0F20CC0FE01E10FF11D2A
:1008200080818A3010F0895C01C0805D0E9449039C
:100830001150112391F72C960FB6F894DEBF0FBE1E
:10084000CDBFCF91DF911F910F91FF90EF90DF907F
:10085000CF90BF90AF909F908F907F906F905F9060
:100860004F900895AF92BF92CF92DF92EF92FF9296
:100870000F931F935B016C010E9460077B018C0149
:100880008AE0B801A7012FEF0E9487038EE20E9441
:100890004903C801B7010E94420B9B01AC01C6018C
:1008A000B5010E94D80820E034E244E759E40E94F0
:1008B00036090E946007AB01BC018AE02FEF0E945D
:1008C00087031F910F91FF90EF90DF90CF90BF9023
:1008D000AF900895CF93DF93EC0103C021960E945F
:1008E000490388818823D1F7DF91CF910895FF9242
:1008F0000F931F93F62E853030F594E6961718F176
:10090000082F000F0F5F802F60E00E94180310E097
:1009100004C08FEF0E9494021F5F1F15D0F31F2D9C
:1009200004C080E00E9494021F5F1436D0F3802F31
:1009300069E60E9418034F2D50E060E070E08AE005
:1009400023E00E9487031F910F91FF900895CF929B
:10095000DF92EF92FF920F931F93062F853008F0DE
:100960004EC0653608F04BC0182F1295110F107E3F
:10097000185F80E0612F0E941803402F50E060E074
:1009800070E08AE023E00E948703402F4695242FE1
:1009900026952695269567E0E62EE21A822F90E0AE
:1009A00053E0880F991F5A95E1F7481B28E030E083
:1009B000241B31098FEF90E002C0880F991F2A9500
:1009C000E2F7C82EFF24F39434E0D32ED10E8F2DFE
:1009D0006D2D0E941803FE1410F400E005C0FE14F3
:1009E00011F00FEF01C00C2D10E0802F0E94940237
:1009F0001F5F1C30D1F7F39488E0F81641F71F9180
:100A00000F91FF90EF90DF90CF900895883028F4F9
:100A10008093810460E00E94180308953F924F92F2
:100A20005F926F927F928F929F92AF92BF92CF927E
:100A3000DF92EF92FF920F931F93CF93DF93B82E25
:100A40004B0187E08B1508F4BB24CC24B5E03B2E8A
:100A5000A5E3AA2EF0E94F2EF1E05F2E44C0E6E0B8
:100A6000EE2E39018B2D6E2D0E941803FE2CDD24F5
:100A700025C08052839D8001112406561E4F90E0B0
:100A80000196EC01CC0FDD1FCC0FDD1FC80FD91F65
:100A9000C656DE4F09C0F80181918F010E94940271
:100AA000F3940C171D0711F0F7FEF5CF80E00E94BC
:100AB00094028A2D8A95F1F7F394D394F401ED0D05
:100AC000F11DE60DF71D8081882311F0F7FED1CFCF
:100AD00088EC90E0F2013197F1F70197D9F7EA94A9
:100AE00009F0C0CFC3942C2D30E0F401E20FF31FC6
:100AF0008081882309F0B3CFDF91CF911F910F91AF
:100B0000FF90EF90DF90CF90BF90AF909F908F902D
:100B10007F906F905F904F903F9008950F931F9339
:100B2000CF93DF938C0180E060E00E9418038CE398
:100B30000E94ED0280E40E949402C0E0D0E0F8013F
:100B4000EC0FFD1F80810E949402219684E0C0304A
:100B5000D807A9F7DF91CF911F910F910895CF93F7
:100B6000DF9381E20E94F70280E00E94F7028FE7A4
:100B70000E94F70282E20E94F70280E00E94F702E0
:100B800087E00E94F7028CE30E94ED0280E40E945D
:100B90009402C0E0D0E080E00E949402219684E0BC
:100BA000C030D807C1F781E20E94F70280E00E94BE
:100BB000F7028FE70E94F70282E20E94F70280E0CC
:100BC0000E94F70287E00E94F7028CE30E94ED0288
:100BD00080E40E949402DF91CF9108958F929F92BA
:100BE000AF92BF92CF92DF92EF92FF920F931F933B
:100BF000DF93CF93CDB7DEB731E1E32EF12CEC0ECE
:100C0000FD1E8F8598899C0159012AE0C22EF6C0ED
:100C1000853209F0EEC00894A11CB11CF501908149
:100C2000892F80538A3018F0DD24DA940FC0DD2438
:100C300009C0DC9CD02C1124D80E0894A11CB11C36
:100C4000F5019081892F80538A3098F3983509F403
:100C50008BC09935C4F4943409F44BC095344CF4EA
:100C6000923409F49DC093342CF5953209F0C3C039
:100C7000BFC0933509F4B2C0953509F462C096340B
:100C800009F0B9C0A0C0963609F49DC0973644F467
:100C9000933681F09436B1F0923609F0ACC071C051
:100CA000953709F445C0983709F455C0933709F0D2
:100CB000A2C094C087010E5F1F4FF70180810E9480
:100CC000490394C092E0892E912C8E0C9F1CF70151
:100CD0000081118117FF06C0109501951F4F8DE20D
:100CE0000E944903A801662757FD6095762F8AE088
:100CF0001AC084E0882E912C8E0C9F1CF701E08096
:100D0000F1800281138117FF0BC010950095F094BC
:100D1000E094E11CF11C011D111D8DE20E944903AC
:100D20008AE0B801A7012D2D0E948703740163C0DA
:100D300087010E5F1F4FF7014081518160E070E035
:100D400008C087010C5F1F4FF7014081518162810C
:100D500073818AE012C087010E5F1F4FF701408147
:100D6000518160E070E008C087010C5F1F4FF70100
:100D7000408151816281738180E12D2D0E94870322
:100D800035C0F70140815181FFEFDF1611F400E11A
:100D9000D02E82E090E0E80EF91E60E070E00EC018
:100DA000F7014081518162817381FFEFDF1611F4F9
:100DB00010E1D12E84E090E0E80EF91E82E02D2DA6
:100DC0000E94870318C087010C5F1F4FF7016081E5
:100DD0007181828193810E94320408C087010E5F75
:100DE0001F4FF701808191810E946A04780103C03E
:100DF00085E20E9449030894A11CB11CF501808181
:100E0000882309F005CFCF91DF911F910F91FF90BB
:100E1000EF90DF90CF90BF90AF909F908F9008950C
:100E20000E9449028EEA0E94F70285ED0E94F702B5
:100E300080E80E94F70288EA0E94F7028FE30E948E
:100E4000F70283ED0E94F70280E00E94F70280E43F
:100E50000E94F7028DE80E94F70284E10E94F702E7
:100E600080E20E94F70280E00E94F70281EA0E947D
:100E7000F70288EC0E94F7028AED0E94F70282E1F5
:100E80000E94F70281E80E94F7028FEC0E94F702AD
:100E900089ED0E94F70281EF0E94F7028BED0E941C
:100EA000F70280E40E94F70284EA0E94F70286EAD1
:100EB0000E94F7028FEA0E94F7020E94AF05089590
:100EC000EF92FF920F931F937B018C0120E030E0A3
:100ED00040E05FE40E94300A88238CF0C801B7012B
:100EE00020E030E040E05FE40E94D8080E94EE0A73
:100EF0009B01AC01205030404040504806C0C80122
:100F0000B7010E94EE0A9B01AC01B901CA011F9111
:100F10000F91FF90EF900895A0E0B0E0E2E9F7E0D4
:100F20000C94180EDC012B01FA019C91923008F40C
:100F300039C1EB018881823008F433C1943069F4FF
:100F4000843009F02FC111969C91119789819817CF
:100F500009F428C1A5E7B3E025C1843009F421C113
:100F60008230A9F4923009F01DC19A01AD0188E0E8
:100F7000EA010990AE01E90109929E018150C1F791
:100F8000E201898111969C918923818308C1923065
:100F900009F407C112962D903C901397EB018A81BA
:100FA0009B811496AD90BD90CD90DC901797EC800E
:100FB000FD800E811F819101281B390BB90137FF7C
:100FC00004C066277727621B730B603271050CF033
:100FD00061C0121613066CF537014801062E04C0D5
:100FE00096948794779467940A94D2F721E030E03E
:100FF00040E050E004C0220F331F441F551F6A9584
:10100000D2F721503040404050402E213F21402314
:101010005123211531054105510521F021E030E032
:1010200040E050E079018A01E628F72808291929CB
:101030003CC0232BD1F1260E371E35014601062E6A
:1010400004C096948794779467940A94D2F721E029
:1010500030E040E050E004C0220F331F441F551F12
:101060006A95D2F721503040404050402A213B2120
:101070004C215D21211531054105510521F021E06B
:1010800030E040E050E059016A01A628B728C8289E
:10109000D9280BC0821593052CF01C01AA24BB246F
:1010A000650103C0EE24FF24870111969C91D201B3
:1010B00011968C91981709F445C0992339F0A8012D
:1010C00097012A193B094C095D0906C0A601950143
:1010D0002E193F09400B510B57FD08C01182338276
:1010E000228224833583468357831DC081E0818318
:1010F0003382228288279927DC01821B930BA40B61
:10110000B50B84839583A683B7830DC0220F331F4D
:10111000441F551F248335834683578382819381DF
:101120000197938382832481358146815781DA0137
:10113000C9010197A109B1098F5F9F4FAF4FBF430D
:1011400028F30BC0918333822282EA0CFB1C0C1D16
:101150001D1DE482F5820683178383E0808324814A
:1011600035814681578157FF1AC0C901AA2797FDCB
:10117000A095BA2F81709070A070B0705695479569
:1011800037952795822B932BA42BB52B848395839E
:10119000A683B78382819381019693838283DF0143
:1011A00001C0D201CD01CDB7DEB7E2E10C94340E1F
:1011B000A0E2B0E0EEEDF8E00C94240E69837A83AF
:1011C0008B839C832D833E834F835887E9E0EE2EEB
:1011D000F12CEC0EFD1ECE010196B7010E94DF0C32
:1011E0008E010F5E1F4FCE010596B8010E94DF0CE5
:1011F0008A8991E089278A8BC701B801AE01475ED1
:101200005F4F0E948C070E940A0CA096E6E00C94A7
:10121000400EA0E2B0E0EFE0F9E00C94240E698308
:101220007A838B839C832D833E834F835887F9E099
:10123000EF2EF12CEC0EFD1ECE010196B7010E949F
:10124000DF0C8E010F5E1F4FCE010596B8010E9484
:10125000DF0CC701B801AE01475E5F4F0E948C07EB
:101260000E940A0CA096E6E00C94400EA0E2B0E0CA
:10127000ECE3F9E00C94180E69837A838B839C83EA
:101280002D833E834F835887CE010196BE01675F51
:101290007F4F0E94DF0CCE010596BE016F5E7F4F2F
:1012A0000E94DF0C9985923088F089898230C8F0DD
:1012B000943019F4823051F404C0843029F492300F
:1012C00081F485E793E0C6C0923049F420E09A8526
:1012D0008A89981321E02A87CE010996BBC0823003
:1012E00049F420E09A858A89981321E02A8BCE015F
:1012F0004196B0C02D843E844F8458886D887E8886
:101300008F88988CEE24FF248701AA24BB246501D2
:1013100040E050E060E070E0E0E0F0E0C1018170AA
:101320009070892BE9F0E60CF71C081D191D9A0135
:10133000AB012A0D3B1D4C1D5D1D80E090E0A0E03F
:10134000B0E0E614F7040805190520F481E090E008
:10135000A0E0B0E0BA01A901480F591F6A1F7B1F26
:10136000AA0CBB1CCC1CDD1C97FE08C081E090E0E1
:10137000A0E0B0E0A82AB92ACA2ADB2A3196E032D6
:10138000F10549F0660C771C881C991C569447940B
:1013900037942794C3CFFA85EA892B893C898B85BA
:1013A0009C85280F391F2E5F3F4F17C0CA018170DF
:1013B0009070892B61F016950795F794E79480E07B
:1013C00090E0A0E0B0E8E82AF92A0A2B1B2B7695DA
:1013D0006795579547952F5F3F4F77FDE7CF0CC037
:1013E000440F551F661F771F17FD4160EE0CFF1C51
:1013F000001F111F21503040403090E0590790E00D
:10140000690790E4790760F32B8F3C8FDB01CA01F9
:101410008F779070A070B07080349105A105B105F0
:1014200061F447FD0AC0E114F1040105110529F03A
:10143000405C5F4F6F4F7F4F40781A8EFE1711F060
:1014400081E08A8F4D8F5E8F6F8F78A383E0898FC5
:10145000CE0149960E940A0CA096E2E10C94340E4B
:10146000A8E1B0E0E6E3FAE00C94240E69837A8305
:101470008B839C832D833E834F83588789E0E82E9E
:10148000F12CEC0EFD1ECE010196B7010E94DF0C7F
:101490008E010F5E1F4FCE010596B8010E94DF0C32
:1014A0008985823040F08989823028F0C701B801EF
:1014B0000E94570D01C08FEF6896E6E00C94400E35
:1014C000A8E1B0E0E6E6FAE00C94240E69837A83A2
:1014D0008B839C832D833E834F83588789E0E82E3E
:1014E000F12CEC0EFD1ECE010196B7010E94DF0C1F
:1014F0008E010F5E1F4FCE010596B8010E94DF0CD2
:101500008985823040F08989823028F0C701B8018E
:101510000E94570D01C081E06896E6E00C94400EF1
:10152000A8E0B0E0E6E9FAE00C94210E9B01AC01E2
:1015300083E08983DA01C9018827B7FD839599275C
:10154000AA27BB27B82E211531054105510519F4ED
:1015500082E089833AC08823A9F0203080E03807F0
:1015600080E0480780E8580729F460E070E080E0F8
:101570009FEC30C0EE24FF248701E21AF30A040B2B
:10158000150B02C079018A018EE1C82ED12CDC82B4
:10159000CB82ED82FE820F831887C801B7010E94BB
:1015A000BB0B01971816190684F4082E04C0EE0C24
:1015B000FF1C001F111F0A94D2F7ED82FE820F83D9
:1015C0001887C81AD90ADC82CB82BA82CE0101966A
:1015D0000E940A0C2896E9E00C943D0EACE0B0E0C5
:1015E000E4EFFAE00C94280E69837A838B839C8362
:1015F000CE010196BE016B5F7F4F0E94DF0C8D8193
:10160000823061F1823050F1843021F48E81882360
:1016100051F12EC02F81388537FD20C06E812F31CA
:1016200031051CF06623F9F023C08EE190E0821BA7
:10163000930B29853A854B855C8504C05695479563
:10164000379527958A95D2F76623B1F05095409546
:10165000309521953F4F4F4F5F4F0EC020E030E057
:1016600040E050E009C02FEF3FEF4FEF5FE704C0CD
:1016700020E030E040E050E8B901CA012C96E2E0F9
:101680000C94440EA8E0B0E0E8E4FBE00C94200EDB
:101690007B018C01611571058105910519F482E0CA
:1016A000898360C083E089838EE1C82ED12CDC82DF
:1016B000CB82ED82FE820F831887C801B7010E949A
:1016C000BB0BFC013197F7FF3BC0222733272E1BB2
:1016D0003F0B57016801022E04C0D694C794B794FB
:1016E000A7940A94D2F740E050E060E070E081E017
:1016F00090E0A0E0B0E004C0880F991FAA1FBB1FB4
:101700002A95D2F70197A109B1098E219F21A02323
:10171000B1230097A105B10521F041E050E060E060
:1017200070E04A295B296C297D294D835E836F8394
:1017300078878EE190E08E1B9F0B9C838B8312C079
:10174000309781F00E2E04C0EE0CFF1C001F111FFD
:101750000A94D2F7ED82FE820F831887CE1ADF0A31
:10176000DC82CB821A82CE0101960E940A0C289656
:10177000EAE00C943C0EEF92FF920F931F937B01D3
:101780008C0180E0E81680E0F80681E0080780E040
:10179000180788F48FEFE816F1040105110531F000
:1017A00028F088E090E0A0E0B0E017C080E090E092
:1017B000A0E0B0E012C080E0E81680E0F80680E02B
:1017C000080781E0180728F088E190E0A0E0B0E089
:1017D00004C080E190E0A0E0B0E020E230E040E032
:1017E00050E0281B390B4A0B5B0B04C0169507957C
:1017F000F794E7948A95D2F7F701E358FC4F80817C
:10180000281B310941095109C9011F910F91FF900E
:10181000EF900895DF92EF92FF920F931F93FC01D8
:10182000E480F58006811781D1808081823048F480
:1018300080E090E0A0E1B0E0E82AF92A0A2B1B2B17
:10184000A5C0843009F49FC0823021F4EE24FF2427
:10185000870105C0E114F1040105110519F4E0E068
:10186000F0E096C0628173819FEF623879070CF0D7
:101870005BC022E83FEF261B370B2A3131052CF0E5
:1018800020E030E040E050E02AC0B801A701022E7D
:1018900004C076956795579547950A94D2F781E0ED
:1018A00090E0A0E0B0E004C0880F991FAA1FBB1F02
:1018B0002A95D2F70197A109B1098E219F21A02372
:1018C000B1230097A105B10521F081E090E0A0E0EF
:1018D000B0E09A01AB01282B392B4A2B5B2BDA01A4
:1018E000C9018F779070A070B07080349105A10508
:1018F000B10539F427FF09C0205C3F4F4F4F5F4FC0
:1019000004C0215C3F4F4F4F5F4FE0E0F0E02030DC
:10191000A0E03A07A0E04A07A0E45A0710F0E1E08F
:10192000F0E079018A0127C06038710564F5FB0198
:10193000E158FF4FD801C7018F779070A070B07049
:1019400080349105A105B10539F4E7FE0DC080E4AE
:1019500090E0A0E0B0E004C08FE390E0A0E0B0E051
:10196000E80EF91E0A1F1B1F17FF05C016950795E5
:10197000F794E794319687E016950795F794E794E6
:101980008A95D1F705C0EE24FF248701EFEFF0E040
:101990006E2F679566276795902F9F77D794DD24E4
:1019A000D7948E2F8695492F462B582F5D29B70146
:1019B000CA011F910F91FF90EF90DF900895FC01F5
:1019C000DB01408151812281622F6F7770E0221FFD
:1019D0002227221F9381892F880F822B282F30E006
:1019E000991F9927991F11969C93119721153105DD
:1019F000A9F5411551056105710511F482E037C063
:101A000082E89FEF13969C938E9312979A01AB01F5
:101A100067E0220F331F441F551F6A95D1F783E0FB
:101A20008C930DC0220F331F441F551F12968D91AA
:101A30009C911397019713969C938E931297203045
:101A400080E0380780E0480780E4580758F3149690
:101A50002D933D934D935C93179708952F3F310538
:101A600079F4411551056105710519F484E08C93F1
:101A7000089564FF03C081E08C9312C01C9210C0D3
:101A80002F57304013963C932E93129783E08C93FC
:101A900087E0440F551F661F771F8A95D1F7706442
:101AA00014964D935D936D937C93179708951F93B0
:101AB000DC01FB019C91923008F447C080818230A8
:101AC00008F443C0943051F411961C91843099F578
:101AD0008181682F70E0611B71093FC0843021F063
:101AE000923031F48230B9F18181882389F12DC09F
:101AF00011961C9111978230F1F081811817D9F459
:101B000012962D913C9113978281938182179307AE
:101B100094F028173907BCF014968D919D910D9083
:101B2000BC91A02D24813581468157812817390722
:101B30004A075B0718F4112341F00AC08217930784
:101B4000A407B50740F4112319F061E070E005C067
:101B50006FEF7FEF02C060E070E0CB011F9108954E
:101B6000629FD001739FF001829FE00DF11D649F81
:101B7000E00DF11D929FF00D839FF00D749FF00D0D
:101B8000659FF00D9927729FB00DE11DF91F639FAE
:101B9000B00DE11DF91FBD01CF011124089597FB80
:101BA000092E07260AD077FD04D02ED006D00020BB
:101BB0001AF4709561957F4F0895F6F79095819589
:101BC0009F4F0895A1E21A2EAA1BBB1BFD010DC059
:101BD000AA1FBB1FEE1FFF1FA217B307E407F507DD
:101BE00020F0A21BB30BE40BF50B661F771F881FB9
:101BF000991F1A9469F760957095809590959B014F
:101C0000AC01BD01CF010895AA1BBB1B51E107C068
:101C1000AA1FBB1FA617B70710F0A61BB70B881F7C
:101C2000991F5A95A9F780959095BC01CD0108950B
:101C30002F923F924F925F926F927F928F929F92DC
:101C4000AF92BF92CF92DF92EF92FF920F931F93CA
:101C5000CF93DF93CDB7DEB7CA1BDB0B0FB6F8947B
:101C6000DEBF0FBECDBF09942A88398848885F84BB
:101C70006E847D848C849B84AA84B984C884DF802C
:101C8000EE80FD800C811B81AA81B981CE0FD11D10
:101C90000FB6F894DEBF0FBECDBFED010895F894E6
:021CA000FFCF74
:101CA200796F7500446F6F72204C6F636B656400CF
:101CB200446F6F7220556E6C6F636B6564004E7576
:101CC2006D626572206F662050656F706C653A2098
:101CD200006675636B00506C6561736520546F75A7
:101CE20063682054656D702053656E736F72004592
:101CF2006E746572206F6E6C7920696620796F75DB
:101D02002063616E207665726966792074686174F9
:101D120020796F75206172656E2774207369636B19
:101D220000506C6561736520456E746572006400D5
:101D32007B48676E5C3E3F687F7C000000000000CD
:101D4200002F00000007000700147F147F14242ACC
:101D52007F2A122313086462364955225000050374
:101D62000000001C2241000041221C0014083E0811
:101D72001408083E08080000A060000808080808C7
:101D8200006060000020100804023E5149453E00F8
:101D9200427F400042615149462141454B3118146E
:101DA200127F1027454545393C4A4949300171099E
:101DB20005033649494936064949291E0036360087
:101DC20000005636000008142241001414141414A2
:101DD20000412214080201510906324959513E7C40
:101DE2001211127C7F494949363E414141227F41CD
:101DF20041221C7F494949417F090909013E414964
:101E0200497A7F0808087F00417F41002040413F16
:101E1200017F081422417F404040407F020C027F34
:101E22007F0408107F3E4141413E7F090909063E79
:101E32004151215E7F09192946464949493101012B
:101E42007F01013F4040403F1F2040201F3F40385C
:101E5200403F63140814630708700807615149453D
:101E620043007F41410055AA55AA550041417F00D8
:101E720004020102044040404040000305000020EB
:101E8200545454787F4844443838444444203844B5
:101E920044487F3854545418087E09010218A4A4F7
:101EA200A47C7F0804047800447D40004080847D47
:101EB200007F1028440000417F40007C0418047811
:101EC2007C080404783844444438FC242424181838
:101ED200242418FC7C080404084854545420043F69
:101EE2004440203C4040207C1C2040201C3C403090
:101EF200403C44281028441CA0A0A07C4464544CBC
:101F02004400107C82000000FF000000827C100070
:101F1200000609090600000000000000000001029E
:101F22000203030303040404040404040405050572
:101F3200050505050505050505050505050606064C
:101F4200060606060606060606060606060606062F
:101F5200060606060606060606060606060707071C
:101F620007070707070707070707070707070707FF
:101F720007070707070707070707070707070707EF
:101F820007070707070707070707070707070707DF
:101F920007070707070707070707070707080808CC
:101FA20008080808080808080808080808080808AF
:101FB200080808080808080808080808080808089F
:101FC200080808080808080808080808080808088F
:101FD200080808080808080808080808080808087F
:101FE200080808080808080808080808080808086F
:101FF200080808080808080808080808080808085F
:10200200080808080808080808080808080808084E
:0E201200080808080808080808080808080058
:00000001FF
